{
  "_format": "hh-sol-artifact-1",
  "contractName": "Chainlinkdata",
  "sourceName": "contracts/Chainlinkdata.sol",
  "abi": [
    {
      "inputs": [],
      "stateMutability": "nonpayable",
      "type": "constructor"
    },
    {
      "inputs": [
        {
          "internalType": "uint256",
          "name": "number",
          "type": "uint256"
        }
      ],
      "name": "getChainLinkDataFeedLatestAnswer",
      "outputs": [
        {
          "internalType": "int256",
          "name": "",
          "type": "int256"
        },
        {
          "internalType": "uint8",
          "name": "",
          "type": "uint8"
        }
      ],
      "stateMutability": "view",
      "type": "function"
    }
  ],
  "bytecode": "0x608060405234801561001057600080fd5b50731b44f3514812d835eb1bdb0acb33d3fa3351ee436000806004811061003a576100396101b9565b5b0160006101000a81548173ffffffffffffffffffffffffffffffffffffffff021916908373ffffffffffffffffffffffffffffffffffffffff160217905550735fb1616f78da7afc9ff79e0371741a747d2a7f2260006001600481106100a3576100a26101b9565b5b0160006101000a81548173ffffffffffffffffffffffffffffffffffffffff021916908373ffffffffffffffffffffffffffffffffffffffff16021790555073694aa1769357215de4fac081bf1f309adc325306600060026004811061010c5761010b6101b9565b5b0160006101000a81548173ffffffffffffffffffffffffffffffffffffffff021916908373ffffffffffffffffffffffffffffffffffffffff16021790555073c59e3633baac79493d908e63626716e204a45edf6000600360048110610175576101746101b9565b5b0160006101000a81548173ffffffffffffffffffffffffffffffffffffffff021916908373ffffffffffffffffffffffffffffffffffffffff1602179055506101e8565b7f4e487b7100000000000000000000000000000000000000000000000000000000600052603260045260246000fd5b610445806101f76000396000f3fe608060405234801561001057600080fd5b506004361061002b5760003560e01c8063960e673514610030575b600080fd5b61004a600480360381019061004591906101fe565b610061565b604051610058929190610260565b60405180910390f35b600080600080846004811061007957610078610289565b5b0160009054906101000a900473ffffffffffffffffffffffffffffffffffffffff1673ffffffffffffffffffffffffffffffffffffffff1663feaf968c6040518163ffffffff1660e01b815260040160a060405180830381865afa1580156100e5573d6000803e3d6000fd5b505050506040513d601f19601f82011682018060405250810190610109919061033b565b505050915050600080856004811061012457610123610289565b5b0160009054906101000a900473ffffffffffffffffffffffffffffffffffffffff1673ffffffffffffffffffffffffffffffffffffffff1663313ce5676040518163ffffffff1660e01b8152600401602060405180830381865afa158015610190573d6000803e3d6000fd5b505050506040513d601f19601f820116820180604052508101906101b491906103e2565b90508181935093505050915091565b600080fd5b6000819050919050565b6101db816101c8565b81146101e657600080fd5b50565b6000813590506101f8816101d2565b92915050565b600060208284031215610214576102136101c3565b5b6000610222848285016101e9565b91505092915050565b6000819050919050565b61023e8161022b565b82525050565b600060ff82169050919050565b61025a81610244565b82525050565b60006040820190506102756000830185610235565b6102826020830184610251565b9392505050565b7f4e487b7100000000000000000000000000000000000000000000000000000000600052603260045260246000fd5b600069ffffffffffffffffffff82169050919050565b6102d7816102b8565b81146102e257600080fd5b50565b6000815190506102f4816102ce565b92915050565b6103038161022b565b811461030e57600080fd5b50565b600081519050610320816102fa565b92915050565b600081519050610335816101d2565b92915050565b600080600080600060a08688031215610357576103566101c3565b5b6000610365888289016102e5565b955050602061037688828901610311565b945050604061038788828901610326565b935050606061039888828901610326565b92505060806103a9888289016102e5565b9150509295509295909350565b6103bf81610244565b81146103ca57600080fd5b50565b6000815190506103dc816103b6565b92915050565b6000602082840312156103f8576103f76101c3565b5b6000610406848285016103cd565b9150509291505056fea2646970667358221220523e920157a3c35e067d4f262f6ce1d4c754310589dc50fb3105c3e29c19825764736f6c634300081c0033",
  "linkReferences": {},
  "deployedLinkReferences": {}
}